{
  "transactions": [
    {
      "hash": "0x057b4af6711f39694e57e6a7e083161471a058b4dbeb0bcb1b1a25c21a387400",
      "transactionType": "CALL",
      "contractName": null,
      "contractAddress": "0xde577025090b7187f25cb9190f1bfad9cef00666",
      "function": "updateWhitelist(address[],bool)",
      "arguments": [
        "[0xd8bBAb5ABec2768444ee30920F52F1D3575dDe2c, 0xacc79c9a29074AFD0216A2a2C3E080E622BB62ce]",
        "true"
      ],
      "transaction": {
        "from": "0xc8547be64bd5b725c430a0e7484ab8ff1179960c",
        "to": "0xde577025090b7187f25cb9190f1bfad9cef00666",
        "gas": "0x19e66",
        "value": "0x0",
        "input": "0xaff177ca000000000000000000000000000000000000000000000000000000000000004000000000000000000000000000000000000000000000000000000000000000010000000000000000000000000000000000000000000000000000000000000002000000000000000000000000d8bbab5abec2768444ee30920f52f1d3575dde2c000000000000000000000000acc79c9a29074afd0216a2a2c3e080e622bb62ce",
        "nonce": "0x1a",
        "chainId": "0x1"
      },
      "additionalContracts": [],
      "isFixedGasLimit": false
    }
  ],
  "receipts": [
    {
      "status": "0x1",
      "cumulativeGasUsed": "0x1307568",
      "logs": [
        {
          "address": "0xde577025090b7187f25cb9190f1bfad9cef00666",
          "topics": [
            "0xa091d95aa3f4b3529e12c57e1e9e10580edde8a7ac6fd51dd3c8e824c332dbe0"
          ],
          "data": "0x000000000000000000000000000000000000000000000000000000000000004000000000000000000000000000000000000000000000000000000000000000010000000000000000000000000000000000000000000000000000000000000002000000000000000000000000d8bbab5abec2768444ee30920f52f1d3575dde2c000000000000000000000000acc79c9a29074afd0216a2a2c3e080e622bb62ce",
          "blockHash": "0x670ae86d8dc140421c3bec47248df2f3d94c53fea02ab97eb814c81962f52328",
          "blockNumber": "0x149f1a7",
          "blockTimestamp": "0x67866f0b",
          "transactionHash": "0x057b4af6711f39694e57e6a7e083161471a058b4dbeb0bcb1b1a25c21a387400",
          "transactionIndex": "0xe6",
          "logIndex": "0x1ce",
          "removed": false
        }
      ],
      "logsBloom": "0x00000000000000000000000000000000000000000000000000000000200000000000000000000000000000000000000000000000000000000000000000000000000000000000000000000000000000000000000000000000000000000000000000000000000000000000000000000000008000000000000000000000000000000000000000000000000000000000000000000000000000000000000000200000000000000000000000000000000000000000000000000000000000000000000000004000000000000000008000000000000000000020000000000000000000000000000000000000000000000000000000000000000000000000000000000000",
      "type": "0x0",
      "transactionHash": "0x057b4af6711f39694e57e6a7e083161471a058b4dbeb0bcb1b1a25c21a387400",
      "transactionIndex": "0xe6",
      "blockHash": "0x670ae86d8dc140421c3bec47248df2f3d94c53fea02ab97eb814c81962f52328",
      "blockNumber": "0x149f1a7",
      "gasUsed": "0x11b5a",
      "effectiveGasPrice": "0x2387986fb",
      "from": "0xc8547be64bd5b725c430a0e7484ab8ff1179960c",
      "to": "0xde577025090b7187f25cb9190f1bfad9cef00666",
      "contractAddress": null
    }
  ],
  "libraries": [],
  "pending": [],
  "returns": {},
  "timestamp": 1736863503,
  "chain": 1,
  "commit": "460a3c6"
}