{
  "transactions": [
    {
      "hash": "0xb3e1dc13a670c9b4a17cfafab2cd34a87025431ce7c70f4b006c696d02fb82b8",
      "transactionType": "CALL",
      "contractName": null,
      "contractAddress": "0xde577025090b7187f25cb9190f1bfad9cef00666",
      "function": "updateWhitelist(address[],bool)",
      "arguments": [
        "[0x1D1e94634FBcB767ce8650269B2c4d33280f0130, 0x85BCe97224ceC0884D9ACa9A961c46b084ecb215]",
        "true"
      ],
      "transaction": {
        "from": "0xc8547be64bd5b725c430a0e7484ab8ff1179960c",
        "to": "0xde577025090b7187f25cb9190f1bfad9cef00666",
        "gas": "0x19e66",
        "value": "0x0",
        "input": "0xaff177ca0000000000000000000000000000000000000000000000000000000000000040000000000000000000000000000000000000000000000000000000000000000100000000000000000000000000000000000000000000000000000000000000020000000000000000000000001d1e94634fbcb767ce8650269b2c4d33280f013000000000000000000000000085bce97224cec0884d9aca9a961c46b084ecb215",
        "nonce": "0x19",
        "chainId": "0x1"
      },
      "additionalContracts": [],
      "isFixedGasLimit": false
    }
  ],
  "receipts": [
    {
      "status": "0x1",
      "cumulativeGasUsed": "0xecfdf2",
      "logs": [
        {
          "address": "0xde577025090b7187f25cb9190f1bfad9cef00666",
          "topics": [
            "0xa091d95aa3f4b3529e12c57e1e9e10580edde8a7ac6fd51dd3c8e824c332dbe0"
          ],
          "data": "0x0000000000000000000000000000000000000000000000000000000000000040000000000000000000000000000000000000000000000000000000000000000100000000000000000000000000000000000000000000000000000000000000020000000000000000000000001d1e94634fbcb767ce8650269b2c4d33280f013000000000000000000000000085bce97224cec0884d9aca9a961c46b084ecb215",
          "blockHash": "0x70bb0a1763bda1a71bf16fa5c6d422cbee3b26fda90dade364d35b1fd10d2cc6",
          "blockNumber": "0x149ed88",
          "blockTimestamp": "0x67863d7f",
          "transactionHash": "0xb3e1dc13a670c9b4a17cfafab2cd34a87025431ce7c70f4b006c696d02fb82b8",
          "transactionIndex": "0xcd",
          "logIndex": "0x193",
          "removed": false
        }
      ],
      "logsBloom": "0x00000000000000000000000000000000000000000000000000000000200000000000000000000000000000000000000000000000000000000000000000000000000000000000000000000000000000000000000000000000000000000000000000000000000000000000000000000000008000000000000000000000000000000000000000000000000000000000000000000000000000000000000000200000000000000000000000000000000000000000000000000000000000000000000000004000000000000000008000000000000000000020000000000000000000000000000000000000000000000000000000000000000000000000000000000000",
      "type": "0x0",
      "transactionHash": "0xb3e1dc13a670c9b4a17cfafab2cd34a87025431ce7c70f4b006c696d02fb82b8",
      "transactionIndex": "0xcd",
      "blockHash": "0x70bb0a1763bda1a71bf16fa5c6d422cbee3b26fda90dade364d35b1fd10d2cc6",
      "blockNumber": "0x149ed88",
      "gasUsed": "0x11b5a",
      "effectiveGasPrice": "0xe832a21b",
      "from": "0xc8547be64bd5b725c430a0e7484ab8ff1179960c",
      "to": "0xde577025090b7187f25cb9190f1bfad9cef00666",
      "contractAddress": null
    }
  ],
  "libraries": [],
  "pending": [],
  "returns": {},
  "timestamp": 1736850819,
  "chain": 1,
  "commit": "460a3c6"
}