{
  "transactions": [
    {
      "hash": "0xcc35402cb4071b6e6ce3d5640a93175f506e4688fcfc3188f7f02ec431dc9d46",
      "transactionType": "CALL",
      "contractName": null,
      "contractAddress": "0x3fe36fe2417049cc50fcc1a475626246c5130452",
      "function": "updateWhitelist(address[],bool)",
      "arguments": [
        "[0x8F75C55Fa603097f72D8801FA3befe0Bd758a89B]",
        "true"
      ],
      "transaction": {
        "from": "0x1d1e94634fbcb767ce8650269b2c4d33280f0130",
        "to": "0x3fe36fe2417049cc50fcc1a475626246c5130452",
        "gas": "0xa754",
        "value": "0x0",
        "input": "0xaff177ca0000000000000000000000000000000000000000000000000000000000000040000000000000000000000000000000000000000000000000000000000000000100000000000000000000000000000000000000000000000000000000000000010000000000000000000000008f75c55fa603097f72d8801fa3befe0bd758a89b",
        "nonce": "0x165",
        "chainId": "0xaa36a7"
      },
      "additionalContracts": [],
      "isFixedGasLimit": false
    }
  ],
  "receipts": [
    {
      "status": "0x1",
      "cumulativeGasUsed": "0x1003c8f",
      "logs": [
        {
          "address": "0x3fe36fe2417049cc50fcc1a475626246c5130452",
          "topics": [
            "0xa091d95aa3f4b3529e12c57e1e9e10580edde8a7ac6fd51dd3c8e824c332dbe0"
          ],
          "data": "0x0000000000000000000000000000000000000000000000000000000000000040000000000000000000000000000000000000000000000000000000000000000100000000000000000000000000000000000000000000000000000000000000010000000000000000000000008f75c55fa603097f72d8801fa3befe0bd758a89b",
          "blockHash": "0x47f4e40c1dce676b1564eabf63069c0fe93094057e82528af08a5786d2f39a13",
          "blockNumber": "0x723c8f",
          "blockTimestamp": "0x6785c808",
          "transactionHash": "0xcc35402cb4071b6e6ce3d5640a93175f506e4688fcfc3188f7f02ec431dc9d46",
          "transactionIndex": "0x7a",
          "logIndex": "0xef",
          "removed": false
        }
      ],
      "logsBloom": "0x00000000000000000000000000000000000000000000000004000000000000000000000000000000000000000000000000000000000000000000000000000000000000000000000000000000000000000000000000000000000000000800000000000000000000000000000000000000008000000000000000000000000000000000000000000000000000000000000000000000000000000000000000200000000000000000001000000000000000000000000000000000000000000000000000000000000000000000000000000000000000000020000000000000000000000000000000000000000000000000000000000000000000000000000000000000",
      "type": "0x0",
      "transactionHash": "0xcc35402cb4071b6e6ce3d5640a93175f506e4688fcfc3188f7f02ec431dc9d46",
      "transactionIndex": "0x7a",
      "blockHash": "0x47f4e40c1dce676b1564eabf63069c0fe93094057e82528af08a5786d2f39a13",
      "blockNumber": "0x723c8f",
      "gasUsed": "0x726a",
      "effectiveGasPrice": "0x19ff77f74",
      "from": "0x1d1e94634fbcb767ce8650269b2c4d33280f0130",
      "to": "0x3fe36fe2417049cc50fcc1a475626246c5130452",
      "contractAddress": null
    }
  ],
  "libraries": [],
  "pending": [],
  "returns": {},
  "timestamp": 1736820745,
  "chain": 11155111,
  "commit": "3270a2d"
}