{
  "transactions": [
    {
      "hash": "0x6491c17fc89cc509e7e3102474e6dc2f2c8ba62e267effa340aed17dc0f4e6bf",
      "transactionType": "CALL",
      "contractName": null,
      "contractAddress": "0xa4eb2e4223f70d2c0ee369e950b58aa272cda3e7",
      "function": "updateWhitelist(address[],bool)",
      "arguments": [
        "[0xdCeD556D5Bf59Bf54aa598b0e108fc49907C043B, 0x807A16f89BAd7Df384dA4142e5177362670Eb3B8, 0xC13311e81622DDeA3282428348e7356c44DeCB3c]",
        "true"
      ],
      "transaction": {
        "from": "0x1d1e94634fbcb767ce8650269b2c4d33280f0130",
        "to": "0xa4eb2e4223f70d2c0ee369e950b58aa272cda3e7",
        "gas": "0x22387",
        "value": "0x0",
        "input": "0xaff177ca000000000000000000000000000000000000000000000000000000000000004000000000000000000000000000000000000000000000000000000000000000010000000000000000000000000000000000000000000000000000000000000003000000000000000000000000dced556d5bf59bf54aa598b0e108fc49907c043b000000000000000000000000807a16f89bad7df384da4142e5177362670eb3b8000000000000000000000000c13311e81622ddea3282428348e7356c44decb3c",
        "nonce": "0x168",
        "chainId": "0xaa36a7"
      },
      "additionalContracts": [],
      "isFixedGasLimit": false
    }
  ],
  "receipts": [
    {
      "status": "0x1",
      "cumulativeGasUsed": "0x2046e09",
      "logs": [
        {
          "address": "0xa4eb2e4223f70d2c0ee369e950b58aa272cda3e7",
          "topics": [
            "0xa091d95aa3f4b3529e12c57e1e9e10580edde8a7ac6fd51dd3c8e824c332dbe0"
          ],
          "data": "0x000000000000000000000000000000000000000000000000000000000000004000000000000000000000000000000000000000000000000000000000000000010000000000000000000000000000000000000000000000000000000000000003000000000000000000000000dced556d5bf59bf54aa598b0e108fc49907c043b000000000000000000000000807a16f89bad7df384da4142e5177362670eb3b8000000000000000000000000c13311e81622ddea3282428348e7356c44decb3c",
          "blockHash": "0xfb8b1ebaecde66abadcfbf35050914f32ffaeea1680b47fc3a49aa0e599b5c67",
          "blockNumber": "0x723cbe",
          "blockTimestamp": "0x6785ca3c",
          "transactionHash": "0x6491c17fc89cc509e7e3102474e6dc2f2c8ba62e267effa340aed17dc0f4e6bf",
          "transactionIndex": "0x9b",
          "logIndex": "0x2c5",
          "removed": false
        }
      ],
      "logsBloom": "0x00000000000000000000000000000000000000000000000000000000000000000000000000000000000000000004000000000000000000000000000000000000000000000000000000000000000000000000000000000000000000000000000000000000000000000000000000000000008800000000000000000000000000000000000000000000000000000000000000000000000000000000000000200000000000000000000000000000000800000000000000000000000000000000000000000000000000000000000000000000000000000020000000000000000000000000000000000000000000000000000000000000000000000000000000000000",
      "type": "0x0",
      "transactionHash": "0x6491c17fc89cc509e7e3102474e6dc2f2c8ba62e267effa340aed17dc0f4e6bf",
      "transactionIndex": "0x9b",
      "blockHash": "0xfb8b1ebaecde66abadcfbf35050914f32ffaeea1680b47fc3a49aa0e599b5c67",
      "blockNumber": "0x723cbe",
      "gasUsed": "0x17661",
      "effectiveGasPrice": "0x1a3ac1c20",
      "from": "0x1d1e94634fbcb767ce8650269b2c4d33280f0130",
      "to": "0xa4eb2e4223f70d2c0ee369e950b58aa272cda3e7",
      "contractAddress": null
    }
  ],
  "libraries": [],
  "pending": [],
  "returns": {},
  "timestamp": 1736821309,
  "chain": 11155111,
  "commit": "3270a2d"
}