{
  "transactions": [
    {
      "hash": "0x1fb3e7244eb2fb0456e8e34dccc2fda3fe115bd3f72ddd255782ceb8a475bc5c",
      "transactionType": "CALL",
      "contractName": null,
      "contractAddress": "0x3fe36fe2417049cc50fcc1a475626246c5130452",
      "function": "updateWhitelist(address[],bool)",
      "arguments": [
        "[0xdCeD556D5Bf59Bf54aa598b0e108fc49907C043B, 0x807A16f89BAd7Df384dA4142e5177362670Eb3B8, 0xC13311e81622DDeA3282428348e7356c44DeCB3c, 0x2fC25088a8D93f10DF697664bEeA5C23f721A230, 0x6DF71940a2892c9B1B121d98be07A5a7E8856dd6, 0xc730a3f7D9E4535c9dF88116B0155c3FA0Ff8Ef6, 0xbA19367Cdbb2262Aaa31e3B4E694df3618481e53, 0x68e6CCe918C80fb9EB7833eB719964eE86afe4C6, 0xb8C2bE97e78F06E8D7A7c046f8Dd4b0f17A6ebCC]",
        "true"
      ],
      "transaction": {
        "from": "0x1d1e94634fbcb767ce8650269b2c4d33280f0130",
        "to": "0x3fe36fe2417049cc50fcc1a475626246c5130452",
        "gas": "0x4f740",
        "value": "0x0",
        "input": "0xaff177ca000000000000000000000000000000000000000000000000000000000000004000000000000000000000000000000000000000000000000000000000000000010000000000000000000000000000000000000000000000000000000000000009000000000000000000000000dced556d5bf59bf54aa598b0e108fc49907c043b000000000000000000000000807a16f89bad7df384da4142e5177362670eb3b8000000000000000000000000c13311e81622ddea3282428348e7356c44decb3c0000000000000000000000002fc25088a8d93f10df697664beea5c23f721a2300000000000000000000000006df71940a2892c9b1b121d98be07a5a7e8856dd6000000000000000000000000c730a3f7d9e4535c9df88116b0155c3fa0ff8ef6000000000000000000000000ba19367cdbb2262aaa31e3b4e694df3618481e5300000000000000000000000068e6cce918c80fb9eb7833eb719964ee86afe4c6000000000000000000000000b8c2be97e78f06e8d7a7c046f8dd4b0f17a6ebcc",
        "nonce": "0x154",
        "chainId": "0xaa36a7"
      },
      "additionalContracts": [],
      "isFixedGasLimit": false
    }
  ],
  "receipts": [
    {
      "status": "0x1",
      "cumulativeGasUsed": "0x8ebd43",
      "logs": [
        {
          "address": "0x3fe36fe2417049cc50fcc1a475626246c5130452",
          "topics": [
            "0xa091d95aa3f4b3529e12c57e1e9e10580edde8a7ac6fd51dd3c8e824c332dbe0"
          ],
          "data": "0x000000000000000000000000000000000000000000000000000000000000004000000000000000000000000000000000000000000000000000000000000000010000000000000000000000000000000000000000000000000000000000000009000000000000000000000000dced556d5bf59bf54aa598b0e108fc49907c043b000000000000000000000000807a16f89bad7df384da4142e5177362670eb3b8000000000000000000000000c13311e81622ddea3282428348e7356c44decb3c0000000000000000000000002fc25088a8d93f10df697664beea5c23f721a2300000000000000000000000006df71940a2892c9b1b121d98be07a5a7e8856dd6000000000000000000000000c730a3f7d9e4535c9df88116b0155c3fa0ff8ef6000000000000000000000000ba19367cdbb2262aaa31e3b4e694df3618481e5300000000000000000000000068e6cce918c80fb9eb7833eb719964ee86afe4c6000000000000000000000000b8c2be97e78f06e8d7a7c046f8dd4b0f17a6ebcc",
          "blockHash": "0x000e524001e431553533366a97036529edf017fc8bc24c03b377ef2884b036e2",
          "blockNumber": "0x717f8d",
          "blockTimestamp": "0x677cca24",
          "transactionHash": "0x1fb3e7244eb2fb0456e8e34dccc2fda3fe115bd3f72ddd255782ceb8a475bc5c",
          "transactionIndex": "0x45",
          "logIndex": "0x5d",
          "removed": false
        }
      ],
      "logsBloom": "0x00000000000000000000000000000000000000000000000004000000000000000000000000000000000000000000000000000000000000000000000000000000000000000000000000000000000000000000000000000000000000000800000000000000000000000000000000000000008000000000000000000000000000000000000000000000000000000000000000000000000000000000000000200000000000000000001000000000000000000000000000000000000000000000000000000000000000000000000000000000000000000020000000000000000000000000000000000000000000000000000000000000000000000000000000000000",
      "type": "0x0",
      "transactionHash": "0x1fb3e7244eb2fb0456e8e34dccc2fda3fe115bd3f72ddd255782ceb8a475bc5c",
      "transactionIndex": "0x45",
      "blockHash": "0x000e524001e431553533366a97036529edf017fc8bc24c03b377ef2884b036e2",
      "blockNumber": "0x717f8d",
      "gasUsed": "0x3985e",
      "effectiveGasPrice": "0x3ed881dac",
      "from": "0x1d1e94634fbcb767ce8650269b2c4d33280f0130",
      "to": "0x3fe36fe2417049cc50fcc1a475626246c5130452",
      "contractAddress": null
    }
  ],
  "libraries": [],
  "pending": [],
  "returns": {},
  "timestamp": 1736231460,
  "chain": 11155111,
  "commit": "3270a2d"
}