{
  "transactions": [
    {
      "hash": "0x24cfc6d1e6a3aa0e09fe5cf4a834baa28f0f25955b84f5a36f84400b37a64615",
      "transactionType": "CALL",
      "contractName": null,
      "contractAddress": "0x7b27bbcff04ec1c62ebe9206091c51d4c92ca3cc",
      "function": "updateWhitelist(address[],bool)",
      "arguments": [
        "[0x85BCe97224ceC0884D9ACa9A961c46b084ecb215, 0xd8bBAb5ABec2768444ee30920F52F1D3575dDe2c, 0xacc79c9a29074AFD0216A2a2C3E080E622BB62ce, 0x85fe1d14B95ce466b4450b863723D14DAFB11CDB, 0x1A2a9b99293AF505799Caad02362883BC31d1e2A]",
        "true"
      ],
      "transaction": {
        "from": "0x1d1e94634fbcb767ce8650269b2c4d33280f0130",
        "to": "0x7b27bbcff04ec1c62ebe9206091c51d4c92ca3cc",
        "gas": "0x30091",
        "value": "0x0",
        "input": "0xaff177ca00000000000000000000000000000000000000000000000000000000000000400000000000000000000000000000000000000000000000000000000000000001000000000000000000000000000000000000000000000000000000000000000500000000000000000000000085bce97224cec0884d9aca9a961c46b084ecb215000000000000000000000000d8bbab5abec2768444ee30920f52f1d3575dde2c000000000000000000000000acc79c9a29074afd0216a2a2c3e080e622bb62ce00000000000000000000000085fe1d14b95ce466b4450b863723d14dafb11cdb0000000000000000000000001a2a9b99293af505799caad02362883bc31d1e2a",
        "nonce": "0x174",
        "chainId": "0xaa36a7"
      },
      "additionalContracts": [],
      "isFixedGasLimit": false
    }
  ],
  "receipts": [
    {
      "status": "0x1",
      "cumulativeGasUsed": "0x87a02b",
      "logs": [
        {
          "address": "0x7b27bbcff04ec1c62ebe9206091c51d4c92ca3cc",
          "topics": [
            "0xa091d95aa3f4b3529e12c57e1e9e10580edde8a7ac6fd51dd3c8e824c332dbe0"
          ],
          "data": "0x00000000000000000000000000000000000000000000000000000000000000400000000000000000000000000000000000000000000000000000000000000001000000000000000000000000000000000000000000000000000000000000000500000000000000000000000085bce97224cec0884d9aca9a961c46b084ecb215000000000000000000000000d8bbab5abec2768444ee30920f52f1d3575dde2c000000000000000000000000acc79c9a29074afd0216a2a2c3e080e622bb62ce00000000000000000000000085fe1d14b95ce466b4450b863723d14dafb11cdb0000000000000000000000001a2a9b99293af505799caad02362883bc31d1e2a",
          "blockHash": "0xb42f9610ab852affe83a22223e2a09a41145344db98b655d7e0247ef1ee00238",
          "blockNumber": "0x72430b",
          "blockTimestamp": "0x67861608",
          "transactionHash": "0x24cfc6d1e6a3aa0e09fe5cf4a834baa28f0f25955b84f5a36f84400b37a64615",
          "transactionIndex": "0x49",
          "logIndex": "0xac",
          "removed": false
        }
      ],
      "logsBloom": "0x00000000000000000000000000000000000000000000000000000000000000000000000000000000000000000000000000000000000008000000000000000000000000000000000000000000000000000000000000000000000000000000000000000000000000000000000000000000008000000000000000000000000000000000000000000000000000000000000000000000000000000000000000200000000000000000000000000000002000000000000000000000000000000000000000000000000000004000000000000000000000000020000000000000000000000000000000000000000000000000000000000000000000000000000000000000",
      "type": "0x0",
      "transactionHash": "0x24cfc6d1e6a3aa0e09fe5cf4a834baa28f0f25955b84f5a36f84400b37a64615",
      "transactionIndex": "0x49",
      "blockHash": "0xb42f9610ab852affe83a22223e2a09a41145344db98b655d7e0247ef1ee00238",
      "blockNumber": "0x72430b",
      "gasUsed": "0x22c6f",
      "effectiveGasPrice": "0x1e741a6470",
      "from": "0x1d1e94634fbcb767ce8650269b2c4d33280f0130",
      "to": "0x7b27bbcff04ec1c62ebe9206091c51d4c92ca3cc",
      "contractAddress": null
    }
  ],
  "libraries": [],
  "pending": [],
  "returns": {},
  "timestamp": 1736840714,
  "chain": 11155111,
  "commit": "0666a4d"
}