{
  "transactions": [
    {
      "hash": "0x9b7012e07bc5ca717900d9f738063412d2e1c18199a05718fbe6ef42a49a4759",
      "transactionType": "CALL",
      "contractName": null,
      "contractAddress": "0x7b27bbcff04ec1c62ebe9206091c51d4c92ca3cc",
      "function": "updateWhitelist(address[],bool)",
      "arguments": [
        "[0xdCeD556D5Bf59Bf54aa598b0e108fc49907C043B, 0x807A16f89BAd7Df384dA4142e5177362670Eb3B8, 0xC13311e81622DDeA3282428348e7356c44DeCB3c, 0x8F75C55Fa603097f72D8801FA3befe0Bd758a89B]",
        "true"
      ],
      "transaction": {
        "from": "0x1d1e94634fbcb767ce8650269b2c4d33280f0130",
        "to": "0x7b27bbcff04ec1c62ebe9206091c51d4c92ca3cc",
        "gas": "0x282d7",
        "value": "0x0",
        "input": "0xaff177ca000000000000000000000000000000000000000000000000000000000000004000000000000000000000000000000000000000000000000000000000000000010000000000000000000000000000000000000000000000000000000000000004000000000000000000000000dced556d5bf59bf54aa598b0e108fc49907c043b000000000000000000000000807a16f89bad7df384da4142e5177362670eb3b8000000000000000000000000c13311e81622ddea3282428348e7356c44decb3c0000000000000000000000008f75c55fa603097f72d8801fa3befe0bd758a89b",
        "nonce": "0x170",
        "chainId": "0xaa36a7"
      },
      "additionalContracts": [],
      "isFixedGasLimit": false
    }
  ],
  "receipts": [
    {
      "status": "0x1",
      "cumulativeGasUsed": "0x2a7490",
      "logs": [
        {
          "address": "0x7b27bbcff04ec1c62ebe9206091c51d4c92ca3cc",
          "topics": [
            "0xa091d95aa3f4b3529e12c57e1e9e10580edde8a7ac6fd51dd3c8e824c332dbe0"
          ],
          "data": "0x000000000000000000000000000000000000000000000000000000000000004000000000000000000000000000000000000000000000000000000000000000010000000000000000000000000000000000000000000000000000000000000004000000000000000000000000dced556d5bf59bf54aa598b0e108fc49907c043b000000000000000000000000807a16f89bad7df384da4142e5177362670eb3b8000000000000000000000000c13311e81622ddea3282428348e7356c44decb3c0000000000000000000000008f75c55fa603097f72d8801fa3befe0bd758a89b",
          "blockHash": "0x5b20bd8c90a156cf28d1ffb2ff24414364cd42ceab08b32e65ed5fb03d94448f",
          "blockNumber": "0x723de5",
          "blockTimestamp": "0x6785d810",
          "transactionHash": "0x9b7012e07bc5ca717900d9f738063412d2e1c18199a05718fbe6ef42a49a4759",
          "transactionIndex": "0x13",
          "logIndex": "0x20",
          "removed": false
        }
      ],
      "logsBloom": "0x00000000000000000000000000000000000000000000000000000000000000000000000000000000000000000000000000000000000008000000000000000000000000000000000000000000000000000000000000000000000000000000000000000000000000000000000000000000008000000000000000000000000000000000000000000000000000000000000000000000000000000000000000200000000000000000000000000000002000000000000000000000000000000000000000000000000000004000000000000000000000000020000000000000000000000000000000000000000000000000000000000000000000000000000000000000",
      "type": "0x0",
      "transactionHash": "0x9b7012e07bc5ca717900d9f738063412d2e1c18199a05718fbe6ef42a49a4759",
      "transactionIndex": "0x13",
      "blockHash": "0x5b20bd8c90a156cf28d1ffb2ff24414364cd42ceab08b32e65ed5fb03d94448f",
      "blockNumber": "0x723de5",
      "gasUsed": "0x1d168",
      "effectiveGasPrice": "0x2bf23104d",
      "from": "0x1d1e94634fbcb767ce8650269b2c4d33280f0130",
      "to": "0x7b27bbcff04ec1c62ebe9206091c51d4c92ca3cc",
      "contractAddress": null
    }
  ],
  "libraries": [],
  "pending": [],
  "returns": {},
  "timestamp": 1736824849,
  "chain": 11155111,
  "commit": "0666a4d"
}