{
  "transactions": [
    {
      "hash": "0x00cb8f63dc0aa2846014a8ea977b884482cd82358517c80bc846e9023bc69224",
      "transactionType": "CALL",
      "contractName": null,
      "contractAddress": "0x6a2f0eb41c9291ec9d8f6efbc4cd91535c3f20c5",
      "function": "updateWhitelist(address[],bool)",
      "arguments": [
        "[0xdCeD556D5Bf59Bf54aa598b0e108fc49907C043B, 0x807A16f89BAd7Df384dA4142e5177362670Eb3B8, 0xC13311e81622DDeA3282428348e7356c44DeCB3c]",
        "true"
      ],
      "transaction": {
        "from": "0x1d1e94634fbcb767ce8650269b2c4d33280f0130",
        "to": "0x6a2f0eb41c9291ec9d8f6efbc4cd91535c3f20c5",
        "gas": "0x22366",
        "value": "0x0",
        "input": "0xaff177ca000000000000000000000000000000000000000000000000000000000000004000000000000000000000000000000000000000000000000000000000000000010000000000000000000000000000000000000000000000000000000000000003000000000000000000000000dced556d5bf59bf54aa598b0e108fc49907c043b000000000000000000000000807a16f89bad7df384da4142e5177362670eb3b8000000000000000000000000c13311e81622ddea3282428348e7356c44decb3c",
        "nonce": "0x162",
        "chainId": "0xaa36a7"
      },
      "additionalContracts": [],
      "isFixedGasLimit": false
    }
  ],
  "receipts": [
    {
      "status": "0x1",
      "cumulativeGasUsed": "0x9c52c1",
      "logs": [
        {
          "address": "0x6a2f0eb41c9291ec9d8f6efbc4cd91535c3f20c5",
          "topics": [
            "0xa091d95aa3f4b3529e12c57e1e9e10580edde8a7ac6fd51dd3c8e824c332dbe0"
          ],
          "data": "0x000000000000000000000000000000000000000000000000000000000000004000000000000000000000000000000000000000000000000000000000000000010000000000000000000000000000000000000000000000000000000000000003000000000000000000000000dced556d5bf59bf54aa598b0e108fc49907c043b000000000000000000000000807a16f89bad7df384da4142e5177362670eb3b8000000000000000000000000c13311e81622ddea3282428348e7356c44decb3c",
          "blockHash": "0xe4116918d7e13c816532e294993242fadaabb6ee97b239308c0eb02d074a69e8",
          "blockNumber": "0x723c31",
          "blockTimestamp": "0x6785c3a0",
          "transactionHash": "0x00cb8f63dc0aa2846014a8ea977b884482cd82358517c80bc846e9023bc69224",
          "transactionIndex": "0x58",
          "logIndex": "0x7e",
          "removed": false
        }
      ],
      "logsBloom": "0x00000000000000000000000000000000000000000000000000000000000000000000000000000000000000000000000000000000000000000000000004000000000000000000000000000000000000000000000000000000000000000020000000000000000000000000000000000800008000000000000000000000000000000000000000000000000000000000000000000000000000000000000000200000000000000000000000000000000000000000000000000000000000000000000000000000000000000000000000000000000000000020000000000000000000000000000000000000000000000000000000000000000000000000000000000000",
      "type": "0x0",
      "transactionHash": "0x00cb8f63dc0aa2846014a8ea977b884482cd82358517c80bc846e9023bc69224",
      "transactionIndex": "0x58",
      "blockHash": "0xe4116918d7e13c816532e294993242fadaabb6ee97b239308c0eb02d074a69e8",
      "blockNumber": "0x723c31",
      "gasUsed": "0x1764b",
      "effectiveGasPrice": "0x1e507cf5c",
      "from": "0x1d1e94634fbcb767ce8650269b2c4d33280f0130",
      "to": "0x6a2f0eb41c9291ec9d8f6efbc4cd91535c3f20c5",
      "contractAddress": null
    }
  ],
  "libraries": [],
  "pending": [],
  "returns": {},
  "timestamp": 1736819618,
  "chain": 11155111,
  "commit": "3270a2d"
}