{
  "transactions": [
    {
      "hash": "0x8c5ef14af85299c2a7b889611c4d4e1b4b7d98eba8c44993d4f8d91124a3d3ec",
      "transactionType": "CALL",
      "contractName": null,
      "contractAddress": "0x6a2f0eb41c9291ec9d8f6efbc4cd91535c3f20c5",
      "function": "updateWhitelist(address[],bool)",
      "arguments": [
        "[0x8F75C55Fa603097f72D8801FA3befe0Bd758a89B]",
        "true"
      ],
      "transaction": {
        "from": "0x1d1e94634fbcb767ce8650269b2c4d33280f0130",
        "to": "0x6a2f0eb41c9291ec9d8f6efbc4cd91535c3f20c5",
        "gas": "0x10986",
        "value": "0x0",
        "input": "0xaff177ca0000000000000000000000000000000000000000000000000000000000000040000000000000000000000000000000000000000000000000000000000000000100000000000000000000000000000000000000000000000000000000000000010000000000000000000000008f75c55fa603097f72d8801fa3befe0bd758a89b",
        "nonce": "0x163",
        "chainId": "0xaa36a7"
      },
      "additionalContracts": [],
      "isFixedGasLimit": false
    }
  ],
  "receipts": [
    {
      "status": "0x1",
      "cumulativeGasUsed": "0x69efdc",
      "logs": [
        {
          "address": "0x6a2f0eb41c9291ec9d8f6efbc4cd91535c3f20c5",
          "topics": [
            "0xa091d95aa3f4b3529e12c57e1e9e10580edde8a7ac6fd51dd3c8e824c332dbe0"
          ],
          "data": "0x0000000000000000000000000000000000000000000000000000000000000040000000000000000000000000000000000000000000000000000000000000000100000000000000000000000000000000000000000000000000000000000000010000000000000000000000008f75c55fa603097f72d8801fa3befe0bd758a89b",
          "blockHash": "0x0e2b3ca0f333d1499bce6b83fa5230b03574d648f99541d6e3d85728f9ffbd6c",
          "blockNumber": "0x723c71",
          "blockTimestamp": "0x6785c6a0",
          "transactionHash": "0x8c5ef14af85299c2a7b889611c4d4e1b4b7d98eba8c44993d4f8d91124a3d3ec",
          "transactionIndex": "0x42",
          "logIndex": "0x5d",
          "removed": false
        }
      ],
      "logsBloom": "0x00000000000000000000000000000000000000000000000000000000000000000000000000000000000000000000000000000000000000000000000004000000000000000000000000000000000000000000000000000000000000000020000000000000000000000000000000000800008000000000000000000000000000000000000000000000000000000000000000000000000000000000000000200000000000000000000000000000000000000000000000000000000000000000000000000000000000000000000000000000000000000020000000000000000000000000000000000000000000000000000000000000000000000000000000000000",
      "type": "0x0",
      "transactionHash": "0x8c5ef14af85299c2a7b889611c4d4e1b4b7d98eba8c44993d4f8d91124a3d3ec",
      "transactionIndex": "0x42",
      "blockHash": "0x0e2b3ca0f333d1499bce6b83fa5230b03574d648f99541d6e3d85728f9ffbd6c",
      "blockNumber": "0x723c71",
      "gasUsed": "0xc03d",
      "effectiveGasPrice": "0x1aaea89a5",
      "from": "0x1d1e94634fbcb767ce8650269b2c4d33280f0130",
      "to": "0x6a2f0eb41c9291ec9d8f6efbc4cd91535c3f20c5",
      "contractAddress": null
    }
  ],
  "libraries": [],
  "pending": [],
  "returns": {},
  "timestamp": 1736820385,
  "chain": 11155111,
  "commit": "3270a2d"
}