{
  "transactions": [
    {
      "hash": "0x78cfa6055ab8ec66165bf7b3a79ff5c22ed2956ebd7c0ebcd395d09ea7635488",
      "transactionType": "CALL",
      "contractName": null,
      "contractAddress": "0xa4eb2e4223f70d2c0ee369e950b58aa272cda3e7",
      "function": "updateWhitelist(address[],bool)",
      "arguments": [
        "[0x8F75C55Fa603097f72D8801FA3befe0Bd758a89B, 0x0000000000000000000000000000000000000000, 0x0000000000000000000000000000000000000000]",
        "true"
      ],
      "transaction": {
        "from": "0x1d1e94634fbcb767ce8650269b2c4d33280f0130",
        "to": "0xa4eb2e4223f70d2c0ee369e950b58aa272cda3e7",
        "gas": "0xb59d",
        "value": "0x0",
        "input": "0xaff177ca0000000000000000000000000000000000000000000000000000000000000040000000000000000000000000000000000000000000000000000000000000000100000000000000000000000000000000000000000000000000000000000000030000000000000000000000008f75c55fa603097f72d8801fa3befe0bd758a89b00000000000000000000000000000000000000000000000000000000000000000000000000000000000000000000000000000000000000000000000000000000",
        "nonce": "0x16e",
        "chainId": "0xaa36a7"
      },
      "additionalContracts": [],
      "isFixedGasLimit": false
    }
  ],
  "receipts": [
    {
      "status": "0x1",
      "cumulativeGasUsed": "0xd3b16d",
      "logs": [
        {
          "address": "0xa4eb2e4223f70d2c0ee369e950b58aa272cda3e7",
          "topics": [
            "0xa091d95aa3f4b3529e12c57e1e9e10580edde8a7ac6fd51dd3c8e824c332dbe0"
          ],
          "data": "0x0000000000000000000000000000000000000000000000000000000000000040000000000000000000000000000000000000000000000000000000000000000100000000000000000000000000000000000000000000000000000000000000030000000000000000000000008f75c55fa603097f72d8801fa3befe0bd758a89b00000000000000000000000000000000000000000000000000000000000000000000000000000000000000000000000000000000000000000000000000000000",
          "blockHash": "0x2deb65ca0b5cb105182ec14cf892fea1f953b12d9c422b5ee76988ac17707131",
          "blockNumber": "0x723db3",
          "blockTimestamp": "0x6785d5b8",
          "transactionHash": "0x78cfa6055ab8ec66165bf7b3a79ff5c22ed2956ebd7c0ebcd395d09ea7635488",
          "transactionIndex": "0x73",
          "logIndex": "0x114",
          "removed": false
        }
      ],
      "logsBloom": "0x00000000000000000000000000000000000000000000000000000000000000000000000000000000000000000004000000000000000000000000000000000000000000000000000000000000000000000000000000000000000000000000000000000000000000000000000000000000008800000000000000000000000000000000000000000000000000000000000000000000000000000000000000200000000000000000000000000000000800000000000000000000000000000000000000000000000000000000000000000000000000000020000000000000000000000000000000000000000000000000000000000000000000000000000000000000",
      "type": "0x0",
      "transactionHash": "0x78cfa6055ab8ec66165bf7b3a79ff5c22ed2956ebd7c0ebcd395d09ea7635488",
      "transactionIndex": "0x73",
      "blockHash": "0x2deb65ca0b5cb105182ec14cf892fea1f953b12d9c422b5ee76988ac17707131",
      "blockNumber": "0x723db3",
      "gasUsed": "0x837d",
      "effectiveGasPrice": "0x265c065e6",
      "from": "0x1d1e94634fbcb767ce8650269b2c4d33280f0130",
      "to": "0xa4eb2e4223f70d2c0ee369e950b58aa272cda3e7",
      "contractAddress": null
    }
  ],
  "libraries": [],
  "pending": [],
  "returns": {},
  "timestamp": 1736824249,
  "chain": 11155111,
  "commit": "0666a4d"
}