{
  "transactions": [
    {
      "hash": "0xa81a8a6846b752f9d8061e6bc9a5a1781fe1ec5c6915321ddb4837176fd04cb9",
      "transactionType": "CALL",
      "contractName": null,
      "contractAddress": "0x3fe36fe2417049cc50fcc1a475626246c5130452",
      "function": "updateWhitelist(address[],bool)",
      "arguments": [
        "[0x1D1e94634FBcB767ce8650269B2c4d33280f0130]",
        "true"
      ],
      "transaction": {
        "from": "0x1d1e94634fbcb767ce8650269b2c4d33280f0130",
        "to": "0x3fe36fe2417049cc50fcc1a475626246c5130452",
        "gas": "0xa754",
        "value": "0x0",
        "input": "0xaff177ca0000000000000000000000000000000000000000000000000000000000000040000000000000000000000000000000000000000000000000000000000000000100000000000000000000000000000000000000000000000000000000000000010000000000000000000000001d1e94634fbcb767ce8650269b2c4d33280f0130",
        "nonce": "0x144",
        "chainId": "0xaa36a7"
      },
      "additionalContracts": [],
      "isFixedGasLimit": false
    }
  ],
  "receipts": [
    {
      "status": "0x1",
      "cumulativeGasUsed": "0x10a7a2c",
      "logs": [
        {
          "address": "0x3fe36fe2417049cc50fcc1a475626246c5130452",
          "topics": [
            "0xa091d95aa3f4b3529e12c57e1e9e10580edde8a7ac6fd51dd3c8e824c332dbe0"
          ],
          "data": "0x0000000000000000000000000000000000000000000000000000000000000040000000000000000000000000000000000000000000000000000000000000000100000000000000000000000000000000000000000000000000000000000000010000000000000000000000001d1e94634fbcb767ce8650269b2c4d33280f0130",
          "blockHash": "0xae000a40cea618c3e330b49622fe544087a778faf992318381abab67e030b243",
          "blockNumber": "0x710f31",
          "blockTimestamp": "0x67773138",
          "transactionHash": "0xa81a8a6846b752f9d8061e6bc9a5a1781fe1ec5c6915321ddb4837176fd04cb9",
          "transactionIndex": "0x5e",
          "logIndex": "0x8e",
          "removed": false
        }
      ],
      "logsBloom": "0x00000000000000000000000000000000000000000000000004000000000000000000000000000000000000000000000000000000000000000000000000000000000000000000000000000000000000000000000000000000000000000800000000000000000000000000000000000000008000000000000000000000000000000000000000000000000000000000000000000000000000000000000000200000000000000000001000000000000000000000000000000000000000000000000000000000000000000000000000000000000000000020000000000000000000000000000000000000000000000000000000000000000000000000000000000000",
      "type": "0x0",
      "transactionHash": "0xa81a8a6846b752f9d8061e6bc9a5a1781fe1ec5c6915321ddb4837176fd04cb9",
      "transactionIndex": "0x5e",
      "blockHash": "0xae000a40cea618c3e330b49622fe544087a778faf992318381abab67e030b243",
      "blockNumber": "0x710f31",
      "gasUsed": "0x726a",
      "effectiveGasPrice": "0x7e2c22ef",
      "from": "0x1d1e94634fbcb767ce8650269b2c4d33280f0130",
      "to": "0x3fe36fe2417049cc50fcc1a475626246c5130452",
      "contractAddress": null
    }
  ],
  "libraries": [],
  "pending": [],
  "returns": {},
  "timestamp": 1735864634,
  "chain": 11155111,
  "commit": "3270a2d"
}