{
  "transactions": [
    {
      "hash": null,
      "transactionType": "CALL",
      "contractName": null,
      "contractAddress": "0x3fe36fe2417049cc50fcc1a475626246c5130452",
      "function": "updateWhitelist(address[],bool)",
      "arguments": [
        "[0x8F75C55Fa603097f72D8801FA3befe0Bd758a89B]",
        "true"
      ],
      "transaction": {
        "from": "0x1d1e94634fbcb767ce8650269b2c4d33280f0130",
        "to": "0x3fe36fe2417049cc50fcc1a475626246c5130452",
        "gas": "0x10967",
        "value": "0x0",
        "input": "0xaff177ca0000000000000000000000000000000000000000000000000000000000000040000000000000000000000000000000000000000000000000000000000000000100000000000000000000000000000000000000000000000000000000000000010000000000000000000000008f75c55fa603097f72d8801fa3befe0bd758a89b",
        "nonce": "0x164",
        "chainId": "0xaa36a7"
      },
      "additionalContracts": [],
      "isFixedGasLimit": false
    }
  ],
  "receipts": [],
  "libraries": [],
  "pending": [],
  "returns": {},
  "timestamp": 1736820702,
  "chain": 11155111,
  "commit": "3270a2d"
}